:020000020000FC
:100000000C942A000C9431010C9436010C943B01A1
:100010000C9440010C9445010C944A010C944F013E
:100020000C9454010C9459010C945E010C946301DE
:100030000C9468010C946D010C9472010C9477017E
:100040000C947C010C9481010C9486010C948B011E
:100050000C94900104E00EBF0FE50DBF789465D1BC
:1000600000270ABB0FEF07BB01BB0BBB002708BB78
:1000700002BB02BF04BD0CE603BF0EE605BD05E1F1
:100080000CBF00E103BDB1D1BED1E4D0F4E0ECE19E
:10009000E10FF21FC895002D64D113951031B1F70F
:1000A00000EC5CD11127F4E0ECE2E10FF21FC895FF
:1000B000002D57D113951031B1F797D105E10CBF41
:1000C00094D10EE003BD9FD10DE003BD9CD10CE0A7
:1000D00003BD99D10BE003BD96D10AE003BD93D1D6
:1000E00009E003BD82D1B6D0F4E0ECE3E10FF21FEA
:1000F000C895002D36D113951E30B1F700EC2ED1E6
:100100001127F4E0EAE4E10FF21FC895002D29D190
:1001100013951E30B1F7C89B09F0FDCF43D1C89BA2
:10012000F1F340D197D0F4E0E8E5E10FF21FC89574
:10013000002D17D113951031B1F757D156D10027A3
:1001400011E047D052D158D0000000000000CF99F4
:10015000A1F0CF9B01F07ED0F4E0E8E6E10FF21FC2
:10016000C895002DFED013951E30B1F73ED13DD17C
:1001700000E10CBF3AD151D011C06CD0F4E0E6E7F9
:10018000E10FF21FC895002DECD013951C30B1F78C
:100190002CD12BD109E10CBF28D13FD000275AD058
:1001A000F4E0EAE9E10FF21FC895002DDAD01395CB
:1001B0001031B1F71AD119D1002718E01130A1F090
:1001C000179512BB0395EED0043BC1F70ED114D0A6
:1001D0005CCF183069F08894111F12BB0395E2D0F0
:1001E000043BB9F702D1089518E012BBDBD0E6CF8B
:1001F00011E012BBD7D0EDCF2DD0F4E0E4E8E10F51
:10020000F21FC895002DADD013951C30B1F7EDD07D
:10021000ECD00DE003BDE9D008951CD0F4E0E0E996
:10022000E10FF21FC895002D9CD013951730B1F740
:10023000DCD0DBD00CE003BDE6D00BE003BDE3D0A7
:100240000AE003BDE0D009E003BDDDD008E003BD56
:10025000CCD0089501E082D000E880D01127222779
:1002600008950FB70F930F910FBF18950FB70F9306
:100270000F910FBF18950FB70F930F910FBF1895E0
:100280000FB70F930F910FBF18950FB70F930F91E3
:100290000FBF18950FB70F930F910FBF18950FB79A
:1002A0000F930F910FBF18950FB70F930F910FBFBB
:1002B00018950FB70F930F910FBF18950FB70F93A6
:1002C0000F910FBF18950FB70F930F910FBF189590
:1002D0000FB70F930F910FBF18950FB70F930F9193
:1002E0000FBF18950FB70F930F910FBF18950FB74A
:1002F0000F930F910FBF18950FB70F930F910FBF6B
:1003000018950FB70F930F910FBF18950FB70F9355
:100310000F910FBF18950FB70F930F910FBF18953F
:100320000FB70F930F910FBF18952AD03BD008E35A
:1003300020D04FD008E31DD047D008E31AD044D0D6
:1003400008E317D041D008E009D001E007D006E06B
:1003500005D00CE003D000E801D008950AD014D0F5
:10036000089505BB949A9598969A26D096980CD0A5
:10037000089505BB94989598969A1ED096980895DE
:100380000FEF04BB01BB089500E004BB9498959A5D
:10039000969A12D096989F99FBCF949895980FEFC4
:1003A00004BB089563E679EC7A95F1F76A95D9F77D
:1003B00062E06A95F1F7089563E476EC7A95F1F7D7
:1003C0006A95D9F70000089565E86A95F1F700008D
:1003D00008956BE27EE77A95F1F76A95D9F765E0C3
:1003E0006A95F1F700000000089564E27CEB84EC6C
:1003F0008A95F1F77A95D9F76A95C1F761E06A9520
:10040000F1F70000089569E07CEB84EC8A95F1F740
:100410007A95D9F76A95C1F70000089541636F6D29
:100420006F64616E646F207061726120706F6465CB
:100430007220696E69636961722E2E2E5072657327
:10044000696F6E6120626F746F6E7061726120639C
:100450006F6D656E7A61722143657272616E646F51
:100460002070696E7A612E2E436F6C6F723A204253
:100470004C414E434F21436F6C6F723A204E4547BB
:10048000524F212053756269656E646F2E2E2E20A7
:1004900042616A616E646F2E2E2E41627269656ED2
:0A04A000646F2070696E7A612E2EE1
:00000001FF
